:0800030074696D6520003A00EC
:100302000127000128000129000B2A303132333441
:06031200353637383900D2
:09039F00D290D291C290C29122C9
:0703A800C290D291D2902215
:030319001202EBE2
:0F031C007FFFD291309006AE071FEE70F7C291AF
:01032B0022AF
:0503AF00D290D2912262
:1002B600D290E4FED291EF25E0FF30900343070190
:0A02C600C2910EBE08EED290C29164
:0102D000220B
:1002EB00E4FEEF339290EF25E0FFD291C2910EBE68
:0602FB0008F0D290C29150
:0103010022D9
:02025900AD07EF
:10025B0012039F7F90120319AF0512031912039F0C
:0E026B007F911202EB12031C1202B61203A8BE
:010279002262
:08032C00D2A58F807F647E00E2
:0B033400EF1FAC0670011E4C70F6229B
:0A039500C2A4C2A312032CC2A522C9
:1002D10012019C7C007D0A12019C742A2DF8E6FF14
:0A02E100C2A4D2A312032CC2A5226E
:0F0386007F3C1203957F0C1203957F06020395AF
:0F027A007F011202897A00790912033F0D7F017B
:0F028900EDBF01042480800224C0FF12039522E0
:10029800AD07ED75F00A84242AF8E6FF1202E1EDB5
:0E02A80075F00A84742A25F0F8E6FF0202E1E0
:10022F00AB07AA067C007D641202D17C007D0AAF69
:10023F0003AE021202D1AE02AF037C007D0A12019F
:0A024F009C742A2DF8E6FF0202E17C
:10033F00120183FF600C1202E1740129F9E43AFA09
:03034F0080EE221B
:1001F100E4FD7F011202897BFF7A00790312033F3C
:100201007D067F01120289AF281202987D08120231
:100211007AAF291202987D0B12027AAF2712029847
:0E0221007D057F02120289AF3CAE3B02022F28
:1003520020A00F7F2C7E0112033420A002B20030B5
:03036200A0FD22D9
:03000B0002000EE2
:10000E00C0E0C0F0C0D075D000C000C004C005C0B4
:10001E0006C007758A17758CFC052105231203523D
:10002E00E521C394FA402675210005227F40120275
:10003E0059753B008F3CAE3B7C007D0A12019C8EB5
:10004E00258F267F421202597539008F3AE522C359
:10005E009404400775220005360527E527C3943C16
:10006E0040050529752700E529C3943C40057529EF
:10007E00000528E528C39418400375280020005376
:10008E00E523C394144003752300AF237E00C3EF12
:10009E009526EE95254003753501D3EF9526EE9501
:1000AE00255003753500C3E53A943CE5399400407C
:1000BE001C853637E536240AFFE433FEC3E5379F49
:1000CE00EE6480F8748098400AD2A18006E535244B
:1000DE00FF92A1300002D2A1D007D006D005D004E5
:0900EE00D000D0D0D0F0D0E032F7
:10037600758901758A17758CFCD28CD2A9D2AF22E9
:100365001203761203AF1203861201F112035280B3
:01037500F88F
:030000000200F704
:0C00F700787FE4F6D8FD75813C02013EE4
:10018300BB010689828A83E0225002E722BBFE027A
:09019300E32289828A83E49322AD
:10019C00BC000BBE0029EF8DF084FFADF022E4CC47
:1001AC00F875F008EF2FFFEE33FEEC33FCEE9DEC10
:1001BC00984005FCEE9DFE0FD5F0E9E4CEFD22ED56
:1001CC00F8F5F0EE8420D21CFEADF075F008EF2FA0
:1001DC00FFED33FD4007985006D5F0F222C398FD91
:0501EC000FD5F0EA222E
:10010300020365E493A3F8E493A34003F68001F2AA
:1001130008DFF48029E493A3F85407240CC8C333FD
:10012300C4540F4420C8834004F456800146F6DFCC
:10013300E4800B0102040810204080900302E47E57
:10014300019360BCA3FF543F30E509541FFEE493C1
:10015300A360010ECF54C025E060A840B8E493A388
:10016300FAE493A3F8E493A3C8C582C8CAC583CAB3
:10017300F0A3C8C582C8CAC583CADFE9DEE780BE6B
:0103180000E4
:00000001FF
