:1005A80074696D6520003A004C783A0025004F5078
:0805B800454E004F46462000AD
:1004D400022F000002310000023300000244001029
:1004E400024B00000B35303132333435363738396E
:0304F40000C10044
:09064C00D290D291C290C2912219
:07000300C290D291D29022BD
:0305D7001205C04A
:0F05DA007FFFD291309006AE071FEE70F7C291EF
:0105E90022EF
:05065500D290D29122B9
:10057300D290E4FED291EF25E0FF309003430701D0
:0A058300C2910EBE08EED290C291A4
:01058D00224B
:1005C000E4FEEF339290EF25E0FFD291C2910EBE90
:0605D00008F0D290C29178
:0105D6002202
:0204F800AD074E
:1004FA0012064C7F901205D7AF051205D712064C8B
:0E050A007F911205C01205DA1205731200036C
:0105180022C0
:0805EA00D2A58F807F647E0022
:0B05F200EF1FAC0670011E4C70F622DB
:0A064200C2A4C2A31205EAC2A52259
:10058E001201EC7C007D0A1201EC74352DF8E6FFA9
:0A059E00C2A4D2A31205EAC2A522EE
:0F0633007F3C1206427F0C1206427F06020642EF
:0F0519007F011205287A0579AE1205FD0D7F01CD
:0F052800EDBF01042480800224C0FF120642228E
:10053700AD07ED75F00A842435F8E6FF12059EED48
:0E05470075F00A84743525F0F8E6FF02059E73
:1004AA00AB07AA067C007D6412058E7C007D0AAF2C
:1004BA0003AE0212058EAE02AF037C007D0A120162
:0A04CA00EC74352DF8E6FF02059EE4
:1005FD001201D3FF600C12059E740129F9E43AFA39
:03060D0080EE225A
:1006100020A00F7F2C7E011205F220A002B2003034
:03062000A0FD2218
:10042C00E4FD7F011205287BFF7A0579A81205FDF2
:10043C007D067F01120528AF321205377D081205A3
:10044C0019AF341205377D0B120519AF3012053771
:10045C00E4FD7F021205287A0579B01205FD7D03B3
:10046C007F02120528AF2CAE2B1204AA7D067F0248
:10047C001205287BFF7A0579B41205FD7D087F02F1
:10048C00120528D3E5489496E547940040067A0572
:0E049C0079B680067BFF7A0579BB1205FD223A
:03000B0002024F9F
:10024F00C0E0C0F0C083C082C0D075D000C000C075
:10025F0001C002C003C004C005C006C007758A17DD
:10026F00758CFC0522E522700205210526E5267016
:10027F00020525D3952EE525952D40067540007571
:10028F004101D3E526952EE525952D5006754000A5
:10029F00754100C3E5269419E525940040067525A0
:1002AF0000752600C3E52294C8E5219400406575CA
:1002BF0021007522000524E5247002052364014501
:1002CF0023700A7F401204F87547008F48E52464B5
:1002DF00044523703FF523F5240530E53070020502
:1002EF002F7F421204F87549008F4AAC49AD4AE49A
:1002FF001201197B147AAE79C7783E12000E1201E3
:10030F00528E2B8F2CAE49AF4A7C007D0A1201EC26
:10031F008E2D8F2EC3E530943CE52F9400400E05B3
:10032F0034E53470020533752F00753000C3E534A2
:10033F00943CE5339400400E75330075340005325C
:10034F00E53270020531C3E5329418E5319400406F
:10035F0006753100753200200017C3E5489496E505
:10036F00479400400AE540454124FF92A18002D204
:10037F00A1300002D2A1D007D006D005D004D003FF
:10038F00D002D001D000D0D0D082D083D0F0D0E036
:01039F00322B
:10062300438901758A17758CFCD28CD2A9D2AF226B
:10055500120623120655120633E4F52FF530F53150
:0E056500F532F533F53412061012042C80F82E
:10000E00EC4D6011E8497017ED33EC3304600DE4EC
:10001E00FCFFFEFD22E933E8330470F80201BE1244
:10002E00018958046009E4CC248150062850090245
:10003E0001C82840030201C5C0E0EB4A7044B980F4
:10004E0006D0E0FB0201B4EF4E701CBD8008EBFF42
:10005E00EAFEE9FD80EBE98DF0A4FEE5F00200F783
:10006E00E9CDF9EAFEEBFFEF89F0A4FCE5F0CE89CD
:10007E00F0A42EFFE435F0CD89F0A42DFEE435F08A
:10008E008067EF4E7005BD80D780C3EF8BF0A4ACB8
:10009E00F0EE8BF0A42CFCE435F0F8EF8AF0A42CF3
:1000AE00E5F038FCE433CB8DF0A42CFCE5F03BF806
:1000BE00EE8AF0A42CFCE5F038F8E433CF89F0A4F6
:1000CE002CFCE5F038CF3400CE89F0A42FFFE5F0FC
:1000DE003EFEE433C98DF0A42EFEE5F039CD8AF054
:1000EE00A42FFFE5F03EFEE43DFD33D0E0FB5007CC
:1000FE000BBB000F0201C8EC2CFCEF33FFEE33FEFE
:06010E00ED33FD0201A02B
:1001140075F020800E75F010800575F0087D007E66
:10012400007F003392D530D503120241EC334010E6
:10013400EF33FFEE33FEED33FDEC33FCD5F0ED226F
:0E014400E5F0247EA2D513CC92E7CDCEFF22AB
:10015200EDD2E7CD33EC3392D524814006E4FFFEA5
:10016200FDFC22FCE4CFCECDCC24E0501174FF8004
:10017200EDC3CC13CCCD13CDCE13CECF13CF0470A1
:07018200F030D5DE0202415E
:10018900E9D2E7C933E833F892D5EDD2E7CD33ECBC
:0701990033FC5002B2D52235
:1001A000EC30E7100FBF000C0EBE00080DBD0004C0
:1001B0000BEB6014A2D5EB13FCED92E7FD2274FF6C
:1001C000FCFDFEFF22E480F8A2D574FF13FC7D80C5
:0301D000E480EFD9
:030000000203A058
:0C03A000787FE4F6D8FD75814C0203E77D
:1001D300BB010689828A83E0225002E722BBFE022A
:0901E300E32289828A83E493225D
:1001EC00BC000BBE0029EF8DF084FFADF022E4CCF7
:1001FC00F875F008EF2FFFEE33FEEC33FCEE9DECC0
:10020C00984005FCEE9DFE0FD5F0E9E4CEFD22ED05
:10021C00F8F5F0EE8420D21CFEADF075F008EF2F4F
:10022C00FFED33FD4007985006D5F0F222C398FD40
:05023C000FD5F0EA22DD
:0E024100C3E49FFFE49EFEE49DFDE49CFC22CE
:1003AC00020555E493A3F8E493A34003F68001F20D
:1003BC0008DFF48029E493A3F85407240CC8C33352
:1003CC00C4540F4420C8834004F456800146F6DF21
:1003DC00E4800B01020408102040809004D4E47ED9
:1003EC00019360BCA3FF543F30E509541FFEE49316
:1003FC00A360010ECF54C025E060A840B8E493A3DD
:10040C00FAE493A3F8E493A3C8C582C8CAC583CA07
:10041C00F0A3C8C582C8CAC583CADFE9DEE780BEBF
:0104F7000004
:00000001FF
